:100000000C9434010C9451010C9451010C94510145
:100010000C9451010C9451010C9451010C94510118
:100020000C9451010C9451010C9451010C94510108
:100030000C9451010C9451010C94B5010C94F301F2
:100040000C94A7010C9451010C9465010C9451017E
:100050000C9451010C9451010C9451010C945101D8
:100060000C9451010C945101808183848687898A84
:100070008C8E8F9192949597989A9B9D9FA0A2A306
:10008000A5A6A8A9ABACADAFB0B2B3B5B6B8B9BA76
:10009000BCBDBEC0C1C3C4C5C6C8C9CACCCDCECF05
:1000A000D1D2D3D4D5D6D8D9DADBDCDDDEDFE0E1BE
:1000B000E2E3E4E5E6E7E8E9EAEBEBECEDEEEFEFAF
:1000C000F0F1F2F2F3F4F4F5F5F6F7F7F8F8F9F9E0
:1000D000FAFAFAFBFBFCFCFCFDFDFDFDFEFEFEFE5C
:1000E000FEFFFFFFFFFFFFFFFFFFFFFFFFFFFFFE22
:1000F000FEFEFEFEFEFDFDFDFCFCFCFBFBFBFAFA3A
:10010000F9F9F8F8F7F7F6F6F5F4F4F3F3F2F1F09D
:10011000F0EFEEEDEDECEBEAE9E8E7E7E6E5E4E346
:10012000E2E1E0DFDEDDDBDAD9D8D7D6D5D4D2D133
:10013000D0CFCDCCCBCAC8C7C6C4C3C2C0BFBEBC5B
:10014000BBBAB8B7B5B4B3B1B0AEADABAAA8A7A5AA
:10015000A4A2A19F9E9C9B999896959391908E8D19
:100160008B8A8887858382807F7D7C7A7877757497
:1001700072716F6E6C6A696766646361605E5D5B15
:100180005A5857555452514F4E4C4B4A4847454484
:100190004341403F3D3C3B39383735343332302FD3
:1001A0002E2D2B2A2928272625242221201F1E1DFB
:1001B0001C1B1A1918181716151413121211100FE8
:1001C0000F0E0D0C0C0B0B0A090908080707060691
:1001D00005050404040303030202020101010101F5
:1001E000010000000000000000000000000000010D
:1001F00001010101020202020303030404050505D3
:10020000060607070808090A0A0B0B0C0D0D0E0F4E
:100210001010111213141415161718191A1B1C1D7F
:100220001E1F2021222324252627292A2B2C2D2E70
:1002300030313233353637393A3B3C3E3F41424329
:10024000454647494A4C4D4F505253545657595AB8
:100250005C5D5F6062646567686A6B6D6E70717328
:10026000757678797B7C7E0011241FBECFEFD8E0B5
:10027000DEBFCDBF11E0A0E0B1E0ECE6F1E102C0ED
:1002800005900D92AA3BB107D9F713E0AAEBB1E0B4
:1002900001C01D92A231B107E1F70E94AD040C9498
:1002A000B4080C940000CF93C82F8A3051F080918D
:1002B000C00085FFFCCFC093C60080E090E0CF91E6
:1002C00008958DE00E945301F2CF1F920F920FB656
:1002D0000F9211248F939F93EF93FF93F894809143
:1002E000C60087FF04C08A3311F08A3039F4E091E8
:1002F000C201F091C301EB53FE4F8083E091C20134
:10030000F091C301EB53FE4F80818A30E1F0E09120
:10031000C201F091C301EB53FE4F80818D3099F003
:100320008091C2019091C30101969093C301809383
:10033000C2017894FF91EF919F918F910F900FBE22
:100340000F901F90189581E080935B02F2CF1F926F
:100350000F920FB60F921124F8945E9A5F9A7894D8
:100360000F900FBE0F901F9018951F920F920FB60F
:100370000F9211242F933F934F938F939F93EF935B
:10038000FF93F8945E988091BC019091BD01FC01AF
:100390000024EE0FFF1F001CEE0FFF1F001CEF2FAD
:1003A000F02DE859FF4FE491E7BD9C0122593E4FE3
:1003B0003093BD012093BC014FE7203C340730F05F
:1003C00082559E479093BD018093BC017894FF9124
:1003D000EF919F918F914F913F912F910F900FBE71
:1003E0000F901F9018951F920F920FB60F92112425
:1003F0002F933F934F938F939F93EF93FF93F89493
:100400005F988091BA019091BB01FC010024EE0F2E
:10041000FF1F001CEE0FFF1F001CEF2FF02DE859EF
:10042000FF4FE491E8BD9C0124533E4F3093BB0144
:100430002093BA014FE7203C340730F0845F9D479A
:100440009093BB018093BA017894FF91EF919F91B3
:100450008F914F913F912F910F900FBE0F901F9052
:1004600018958CE284B990E195B924988EE387B908
:1004700081E088B9389884EC8AB988E18BB98AB16F
:10048000877E8AB91092C5009093C40082E0809361
:10049000C00088E98093C1008BEA91E090930F033C
:1004A00080930E03F8941092B60083E084BD87E039
:1004B00080936E0017BC089580E091E00E94D10502
:1004C0008FEF90E7A2E081509040A040E1F700C09C
:1004D00000008AE191E00E94D1058FEF90E7A2E051
:1004E00081509040A040E1F700C0000080E391E01F
:1004F0000E94D1058FEF90E7A2E081509040A0408C
:10050000E1F700C0000086E491E00E94D1058FEF82
:1005100090E7A2E081509040A040E1F700C00000C9
:100520008DE591E00E94D1058FEF90E7A2E0815028
:100530009040A040E1F700C0000083E791E00E94F6
:10054000D10508958091C00087FFFCCF8091C6003F
:100550000895009751F038E228E200002150E9F7B1
:100560003150D1F70197B9F7089508955E9A89E25D
:100570009BE00197F1F75E9889E29BE00197F1F724
:100580000895459882E302C0815091F0439A4498BF
:10059000EFE4F3EC3197F1F700C000004398449A80
:1005A000EFE4F3EC3197F1F700C00000309BECCFA3
:1005B00043984498459A089542980E94C1028CE25B
:1005C00091E002C0019741F0AFE1BEE41197F1F76D
:1005D00000C00000309BF6CF309B08958FEF91EE66
:1005E000A4E081509040A040E1F700C0000089E7FE
:1005F00091E00E94D1053099FECF80E891E00E9401
:10060000D1058FEF99E6A8E181509040A040E1F735
:1006100000C0000008954598439A44988FE493ECF5
:100620000197F1F700C000004398449A8FE493ECDF
:100630000197F1F700C0000043984498459A089547
:10064000FC01DB014C914423B9F020812223C1F04D
:100650003196342F80E090E006C0342F80E090E0A7
:100660002191222359F03217C1F70196DB01A80F1F
:10067000B91F3C913323A1F781E0089580E00895EC
:1006800080E008958FE798E3A1E081509040A0407A
:10069000E1F700C00000309903C028C0309B02C0C1
:1006A0004C9BFCCF8FEF99EFA0E081509040A04091
:1006B000E1F700C00000459802C0309B02C04C9991
:1006C000FCCF8FEF99EFA0E081509040A040E1F780
:1006D00000C00000459A80915C0290915D020196F5
:1006E00090935D0280935C024B9BD5CF309B1AC0E8
:1006F00080910B038F5F80930B0380915C0290913C
:100700005D028A30910589F08A309105E0F0809190
:100710005E0290915F02019790935F0280935E0268
:1007200081E00895459A80E0089510925D0210924C
:100730005C0280E3E0915E02F0915F02EF59FD4FB1
:10074000808381E00895805DF5CF309B089500D0CF
:1007500087E891E0EDB7FEB7928381830E94B505EB
:1007600010925F0210925E020F900F9080910B0327
:100770008823C1F080E090E08F599D4FFC0180817B
:1007800090E00E94CA0580915E0290915F020196FE
:1007900090935F0280935E0220910B0330E08217FA
:1007A000930754F38CE891E00E94D1053099FECF75
:1007B0000895CF93DF9345988091C1008F77809300
:1007C000C10085B5816085BD4B9B46C0309BB0C0E4
:1007D00080915B028823C1F3F89410925B0210921F
:1007E000C3011092C201C5E7D2E0DE0180E090E0D3
:1007F000FC01EB53FE4F20812D9301968639910524
:10080000B9F780E090E0FC01EB53FE4F10820196B7
:1008100086399105C1F7789485E792E06EE871E03A
:100820000E942003882381F280E090E0FC01EB53DA
:10083000FE4F1082019686399105C1F7199223E087
:10084000CB30D207D9F71092BF011092BE0110929F
:100850005B02DF91CF9108958091C1008068809301
:10086000C10085B58E7F85BD10920B0310925D028D
:1008700010925C0210925F0210925E021092C1010F
:100880001092C0010E9442038823B1F020915E02C1
:1008900030915F022F5F3F4F30935F0220935E02E3
:1008A0008091C0019091C10188329105D4F1121656
:1008B000130614F40E94A50380E891E00E94D1057C
:1008C0001092C1011092C0018FEF99E6A8E181500A
:1008D0009040A040E1F700C00000459ADF91CF9121
:1008E00008950E944203882349F080915E0290910E
:1008F0005F02019690935F0280935E0280E090E039
:100900002FEF30E742E0215030404040E1F700C097
:10091000000001969093C1018093C0018832910537
:100920009CF410925D0210925C024B99E9CFD9CFF2
:100930008091C10080688093C10085B58E7F85BDA0
:10094000459ADF91CF91089520915E0230915F0228
:10095000121613060CF4AECFAFCF0E9431025A9894
:10096000419A45982FEF34E34CE02150304040400D
:10097000E1F700C00000459A42988FEF93EDA0E3A5
:1009800081509040A040E1F700C000000E945C024E
:100990000E940B038091BE019091BF0101E010E025
:1009A000009709F062C0459880E090E0FC01EB53AD
:1009B000FE4F1082019686399105C1F7A5E7B2E096
:1009C000FD01119293E0EB30F907D9F71092C301C2
:1009D0001092C20110925B02789480915B0288238E
:1009E000C1F42FEF33EC49E0215030404040E1F7B3
:1009F00000C00000459A2FEF30E742E02150304020
:100A00004040E1F700C00000459880915B028823D8
:100A100041F3F89410925B021092C3011092C2014C
:100A200080E090E0FC01EB53FE4F20812D93019676
:100A300086399105B9F780E090E0FC01EB53FE4F59
:100A40001082019686399105C1F785E792E06BE93E
:100A500071E00E942003882309F075C08091BE01D7
:100A60009091BF01009709F49ECF009709F498CFA9
:100A700045987894309949C080915B028823D1F3DE
:100A8000F89410925B021092C3011092C201C5E764
:100A9000D2E0DE0180E090E0FC01EB53FE4F2081CC
:100AA0002D93019686399105B9F7459A789485E793
:100AB00092E060EA71E00E942003882369F585E7EF
:100AC00092E06EE871E00E942003882399F280E0B2
:100AD00090E0FC01EB53FE4F1082019686399105A0
:100AE000C1F71992A3E0CB30DA07D9F71092BF0112
:100AF0001092BE0110925B022FEF31EE44E02150C4
:100B000030404040E1F700C00000309919C08091AA
:100B1000BE019091BF01A9CF0E94DC02E5E7F2E09F
:100B2000119293E0EB30F907D9F780E090E0FC01F7
:100B3000EB53FE4F1082019686399105C1F7BFCF66
:100B40000E94D903E4CF1093BF010093BE010E941D
:100B50000B038FE79AE1A6E081509040A040E1F7B7
:100B600000C000000E940B0379CFA0E0B0E0EBEBE7
:100B7000F5E00C948D08FE0135966191719180919C
:100B80000E0390910F03AF010E94FF052096E2E053
:100B90000C94A90860910E0370910F030E94F30753
:100BA00008950F931F93CF93DF938C01E0910E0371
:100BB000F0910F03838181FF1AC0C0E0D0E005C02F
:100BC0000995009711F0CFEFDFEFF80181918F01C8
:100BD00060910E0370910F03DB011896ED91FC916B
:100BE0001997882369F78AE00995009711F0CFEFEC
:100BF000DFEFCE01DF91CF911F910F910895ADE00E
:100C0000B0E0E5E0F6E00C947D083C017D876C8760
:100C10005A01FC0117821682838181FFC8C12E010F
:100C20000894411C511CF3019381EC85FD8593FDD3
:100C3000859193FF8191FD87EC87882309F4B3C1E7
:100C4000853241F493FD859193FF8191FD87EC8777
:100C5000853229F490E0B3010E94F307E4CFFF242A
:100C6000EE2410E01032B0F48B3269F08C3228F4AC
:100C7000803251F0833271F40BC08D3239F0803301
:100C800049F411602CC01260146029C0186027C09C
:100C9000106125C017FD2EC0282F20532A3098F44C
:100CA00016FF08C08F2D880FF82EFF0CFF0CF80ED2
:100CB000F20E15C08E2D880FE82EEE0CEE0CE80E0D
:100CC000E20E10620CC08E3221F416FD6CC110646D
:100CD00006C08C3611F4106802C0883659F4EC85D1
:100CE000FD8593FD859193FF8191FD87EC87882396
:100CF00009F0B8CF982F9554933018F09052933054
:100D000038F424E030E0A20EB31E3FE339830FC075
:100D1000833631F0833781F0833509F05AC022C021
:100D2000F5018081898322E030E0A20EB31E21E02C
:100D3000C22ED12C420114C092E0292E312C2A0C53
:100D40003B1CF5018080918016FF03C06F2D70E081
:100D500002C06FEF7FEFC4010E94E8076C015101F0
:100D60001F7715C082E0282E312C2A0C3B1CF50180
:100D70008080918016FF03C06F2D70E002C06FEF7E
:100D80007FEFC4010E94DD076C011068510113FD63
:100D90001CC006C080E290E0B3010E94F307EA9411
:100DA0008E2D90E0C816D906A8F30FC0F40117FDE8
:100DB000859117FF81914F0190E0B3010E94F307E5
:100DC000E110EA940894C108D108C114D10471F764
:100DD000E7C0843611F0893651F5F50117FF07C0D9
:100DE00080819181A281B38124E030E008C08081BC
:100DF0009181AA2797FDA095BA2F22E030E0A20E9C
:100E0000B31E012F0F76B7FF08C0B095A09590953F
:100E100081959F4FAF4FBF4F0068BC01CD01A2012C
:100E20002AE030E00E941F08D82ED4183FC0853732
:100E300021F41F7E2AE030E020C0197F8F36A9F010
:100E4000803720F4883509F0AEC00BC0803721F020
:100E5000883709F0A8C001C0106114FF09C01460F0
:100E600007C014FF08C0166006C028E030E005C0C7
:100E700020E130E002C020E132E0F50117FF07C0B9
:100E8000608171818281938144E050E006C060817D
:100E9000718180E090E042E050E0A40EB51EA20116
:100EA0000E941F08D82ED418012F0F7706FF09C003
:100EB0000E7FDF1430F404FF06C002FD04C00F7E75
:100EC00002C01D2D01C01F2D802F90E004FF0CC01B
:100ED000FE01ED0DF11D2081203311F4097E09C0C2
:100EE00002FF06C01E5F05C086789070009709F06B
:100EF0001F5F802E992403FD12C000FF0DC0FD2C42
:100F00001E1550F4FE0CF11A1E2D06C080E290E072
:100F1000B3010E94F3071F5F1E15C0F304C01E1526
:100F200010F4E11A01C0EE2484FE0FC080E390E0CB
:100F3000B3010E94F30782FE1FC081FE03C088E553
:100F400090E010C088E790E00DC0C40186789070F2
:100F5000009791F081FC02C080E201C08BE207FDA6
:100F60008DE290E0B3010E94F30706C080E390E0B9
:100F7000B3010E94F307FA94DF14C0F3DA94F2018C
:100F8000ED0DF11D808190E0B3010E94F307DD209B
:100F9000A9F706C080E290E0B3010E94F307EA944B
:100FA000EE20C1F740CEF3018681978102C08FEF1A
:100FB0009FEF2D96E2E10C949908FC010590615099
:100FC00070400110D8F7809590958E0F9F1F08955F
:100FD000FC016150704001900110D8F78095909508
:100FE0008E0F9F1F08950F931F93CF93DF938C0154
:100FF000EB018B8181FF1BC082FF0DC02E813F81E1
:101000008C819D812817390764F4E881F981019367
:10101000F983E88306C0E885F985802F0995009754
:1010200031F48E819F8101969F838E8302C00FEFE2
:101030001FEFC801DF91CF911F910F910895FA0121
:10104000AA27283051F1203181F1E8946F936E7F07
:101050006E5F7F4F8F4F9F4FAF4FB1E03ED0B4E0F8
:101060003CD0670F781F891F9A1FA11D680F791F39
:101070008A1F911DA11D6A0F711D811D911DA11D4A
:1010800020D009F468943F912AE0269F112430195A
:10109000305D3193DEF6CF010895462F4770405DF5
:1010A0004193B3E00FD0C9F7F6CF462F4F70405DA4
:1010B0004A3318F0495D31FD4052419302D0A9F7FF
:1010C000EACFB4E0A6959795879577956795BA95F9
:1010D000C9F700976105710508959B01AC010A2EBF
:1010E00006945795479537952795BA95C9F7620F96
:1010F000731F841F951FA01D08952F923F924F923A
:101100005F926F927F928F929F92AF92BF92CF9297
:10111000DF92EF92FF920F931F93CF93DF93CDB7A0
:10112000DEB7CA1BDB0B0FB6F894DEBF0FBECDBF18
:1011300009942A88398848885F846E847D848C84E9
:101140009B84AA84B984C884DF80EE80FD800C81F2
:101150001B81AA81B981CE0FD11D0FB6F894DEBFD5
:0C1160000FBECDBFED010895F894FFCF45
:10116C0053455420434F4E54524F4C20434F4E4600
:10117C004947203130300A415400534554205052D5
:10118C004F46494C4520484650204F4E0A4154008A
:10119C005345542042542041555448202A20313282
:1011AC0033340A41540053455420425420434C419B
:1011BC005353203230303430340A415400534554A8
:1011CC00204254204E414D4520535041524B590A18
:1011DC00415400524553455400414E53574552001B
:1011EC0048414E475550000A415444003B004E4F75
:1011FC00204341525249455220300052494E47003B
:10120C0048465020302052494E4700000000020052
:0A121C000000005301000000000074
:00000001FF
